{
  "contractName": "WritingShare",
  "abi": [
    {
      "constant": true,
      "inputs": [
        {
          "name": "",
          "type": "uint256"
        }
      ],
      "name": "currentCandidateContent",
      "outputs": [
        {
          "name": "",
          "type": "string"
        }
      ],
      "payable": false,
      "stateMutability": "view",
      "type": "function"
    },
    {
      "constant": true,
      "inputs": [
        {
          "name": "",
          "type": "uint256"
        }
      ],
      "name": "chapters",
      "outputs": [
        {
          "name": "numCandidates",
          "type": "uint256"
        },
        {
          "name": "beginChapterTime",
          "type": "uint256"
        },
        {
          "name": "writingEnd",
          "type": "uint256"
        },
        {
          "name": "votingEnd",
          "type": "uint256"
        },
        {
          "name": "totalMoney",
          "type": "uint256"
        }
      ],
      "payable": false,
      "stateMutability": "view",
      "type": "function"
    },
    {
      "constant": true,
      "inputs": [
        {
          "name": "",
          "type": "uint256"
        }
      ],
      "name": "allWinnerContent",
      "outputs": [
        {
          "name": "",
          "type": "string"
        }
      ],
      "payable": false,
      "stateMutability": "view",
      "type": "function"
    },
    {
      "inputs": [],
      "payable": false,
      "stateMutability": "nonpayable",
      "type": "constructor"
    },
    {
      "constant": false,
      "inputs": [],
      "name": "createNewChapter",
      "outputs": [],
      "payable": true,
      "stateMutability": "payable",
      "type": "function"
    },
    {
      "constant": false,
      "inputs": [
        {
          "name": "_content",
          "type": "string"
        }
      ],
      "name": "createNewCandidate",
      "outputs": [],
      "payable": true,
      "stateMutability": "payable",
      "type": "function"
    },
    {
      "constant": false,
      "inputs": [],
      "name": "checkVoting",
      "outputs": [
        {
          "name": "",
          "type": "uint256"
        }
      ],
      "payable": false,
      "stateMutability": "nonpayable",
      "type": "function"
    },
    {
      "constant": false,
      "inputs": [
        {
          "name": "_indexVoteCandidate",
          "type": "uint256"
        }
      ],
      "name": "voting",
      "outputs": [],
      "payable": true,
      "stateMutability": "payable",
      "type": "function"
    },
    {
      "constant": false,
      "inputs": [],
      "name": "endVoting",
      "outputs": [],
      "payable": false,
      "stateMutability": "nonpayable",
      "type": "function"
    },
    {
      "constant": true,
      "inputs": [],
      "name": "findWinnerIndex",
      "outputs": [
        {
          "name": "",
          "type": "uint256"
        }
      ],
      "payable": false,
      "stateMutability": "view",
      "type": "function"
    },
    {
      "constant": false,
      "inputs": [],
      "name": "rewardTheWinner",
      "outputs": [],
      "payable": false,
      "stateMutability": "nonpayable",
      "type": "function"
    },
    {
      "constant": true,
      "inputs": [],
      "name": "getCurrentChapter",
      "outputs": [
        {
          "name": "",
          "type": "uint256"
        }
      ],
      "payable": false,
      "stateMutability": "view",
      "type": "function"
    },
    {
      "constant": true,
      "inputs": [],
      "name": "getStage",
      "outputs": [
        {
          "name": "",
          "type": "uint256"
        }
      ],
      "payable": false,
      "stateMutability": "view",
      "type": "function"
    },
    {
      "constant": true,
      "inputs": [],
      "name": "getBalance",
      "outputs": [
        {
          "name": "",
          "type": "uint256"
        }
      ],
      "payable": false,
      "stateMutability": "view",
      "type": "function"
    },
    {
      "constant": true,
      "inputs": [],
      "name": "getWrittingLeftTime",
      "outputs": [
        {
          "name": "",
          "type": "uint256"
        }
      ],
      "payable": false,
      "stateMutability": "view",
      "type": "function"
    },
    {
      "constant": true,
      "inputs": [],
      "name": "getVotingLeftTime",
      "outputs": [
        {
          "name": "",
          "type": "uint256"
        }
      ],
      "payable": false,
      "stateMutability": "view",
      "type": "function"
    },
    {
      "constant": true,
      "inputs": [],
      "name": "getNumCandidate",
      "outputs": [
        {
          "name": "",
          "type": "uint256"
        }
      ],
      "payable": false,
      "stateMutability": "view",
      "type": "function"
    },
    {
      "constant": true,
      "inputs": [
        {
          "name": "_indexCandidate",
          "type": "uint256"
        }
      ],
      "name": "getCurrentCandidateContent",
      "outputs": [
        {
          "name": "",
          "type": "string"
        }
      ],
      "payable": false,
      "stateMutability": "view",
      "type": "function"
    },
    {
      "constant": true,
      "inputs": [
        {
          "name": "_indexCandidate",
          "type": "uint256"
        }
      ],
      "name": "getCandidateAddress",
      "outputs": [
        {
          "name": "",
          "type": "address"
        }
      ],
      "payable": false,
      "stateMutability": "view",
      "type": "function"
    },
    {
      "constant": true,
      "inputs": [
        {
          "name": "_indexCandidate",
          "type": "uint256"
        }
      ],
      "name": "getCandidateVotes",
      "outputs": [
        {
          "name": "",
          "type": "uint256"
        }
      ],
      "payable": false,
      "stateMutability": "view",
      "type": "function"
    },
    {
      "constant": true,
      "inputs": [
        {
          "name": "_indexChapter",
          "type": "uint256"
        }
      ],
      "name": "getWinnerContent",
      "outputs": [
        {
          "name": "",
          "type": "string"
        }
      ],
      "payable": false,
      "stateMutability": "view",
      "type": "function"
    },
    {
      "constant": false,
      "inputs": [
        {
          "name": "t",
          "type": "uint256"
        }
      ],
      "name": "setWritingTime",
      "outputs": [],
      "payable": false,
      "stateMutability": "nonpayable",
      "type": "function"
    },
    {
      "constant": false,
      "inputs": [
        {
          "name": "t",
          "type": "uint256"
        }
      ],
      "name": "setVotingTime",
      "outputs": [],
      "payable": false,
      "stateMutability": "nonpayable",
      "type": "function"
    },
    {
      "constant": false,
      "inputs": [
        {
          "name": "t",
          "type": "uint256"
        }
      ],
      "name": "setBeginCost",
      "outputs": [],
      "payable": false,
      "stateMutability": "nonpayable",
      "type": "function"
    },
    {
      "constant": false,
      "inputs": [
        {
          "name": "t",
          "type": "uint256"
        }
      ],
      "name": "setWritingCost",
      "outputs": [],
      "payable": false,
      "stateMutability": "nonpayable",
      "type": "function"
    },
    {
      "constant": false,
      "inputs": [
        {
          "name": "t",
          "type": "uint256"
        }
      ],
      "name": "setVotingCost",
      "outputs": [],
      "payable": false,
      "stateMutability": "nonpayable",
      "type": "function"
    }
  ],
  "bytecode": "0x6080604052600080556000600155600a600255600a600355678ac7230489e80000600455678ac7230489e80000600555678ac7230489e800006006556028600755602860085560006040519080825280602002602001820160405280156200007c57816020015b6060815260200190600190039081620000665790505b50600b9080519060200190620000949291906200013a565b506000604051908082528060200260200182016040528015620000cc57816020015b6060815260200190600190039081620000b65790505b50600c9080519060200190620000e49291906200013a565b50348015620000f257600080fd5b5033600960006101000a81548173ffffffffffffffffffffffffffffffffffffffff021916908373ffffffffffffffffffffffffffffffffffffffff160217905550620002cd565b8280548282559060005260206000209081019282156200018e579160200282015b828111156200018d5782518290805190602001906200017c929190620001a1565b50916020019190600101906200015b565b5b5090506200019d919062000228565b5090565b828054600181600116156101000203166002900490600052602060002090601f016020900481019282601f10620001e457805160ff191683800117855562000215565b8280016001018555821562000215579182015b8281111562000214578251825591602001919060010190620001f7565b5b50905062000224919062000259565b5090565b6200025691905b8082111562000252576000818162000248919062000281565b506001016200022f565b5090565b90565b6200027e91905b808211156200027a57600081600090555060010162000260565b5090565b90565b50805460018160011615610100020316600290046000825580601f10620002a95750620002ca565b601f016020900490600052602060002090810190620002c9919062000259565b5b50565b611b3880620002dd6000396000f300608060405260043610610149576000357c0100000000000000000000000000000000000000000000000000000000900463ffffffff16806312065fe01461014e5780631835ee4e146101795780631e1a51ba146101a65780634a9202a4146101d15780635b13714e146101e85780637797894e14610213578063787433d314610240578063866163c01461026d57806397ae128f146102ae578063a0b0af47146102d9578063af57c2c81461037f578063b1ee6632146103ac578063b31cafdd146103d7578063c3403ddf14610402578063c67b5f3b14610419578063c8be2ea214610423578063d02cf3cf146104c9578063d7c81976146104f4578063d83f0cb814610521578063e746e4ae146105c7578063ee08ece514610623578063f40adb1214610690578063fb3af1a9146106ed578063fcaa766414610793578063fd4a77f1146107be575b600080fd5b34801561015a57600080fd5b506101636107de565b6040518082815260200191505060405180910390f35b34801561018557600080fd5b506101a460048036038101908080359060200190929190505050610859565b005b3480156101b257600080fd5b506101bb6108bf565b6040518082815260200191505060405180910390f35b3480156101dd57600080fd5b506101e66109c0565b005b3480156101f457600080fd5b506101fd610c53565b6040518082815260200191505060405180910390f35b34801561021f57600080fd5b5061023e60048036038101908080359060200190929190505050610d06565b005b34801561024c57600080fd5b5061026b60048036038101908080359060200190929190505050610d6c565b005b34801561027957600080fd5b5061029860048036038101908080359060200190929190505050610dd2565b6040518082815260200191505060405180910390f35b3480156102ba57600080fd5b506102c3610e2b565b6040518082815260200191505060405180910390f35b3480156102e557600080fd5b5061030460048036038101908080359060200190929190505050610e68565b6040518080602001828103825283818151815260200191508051906020019080838360005b83811015610344578082015181840152602081019050610329565b50505050905090810190601f1680156103715780820380516001836020036101000a031916815260200191505b509250505060405180910390f35b34801561038b57600080fd5b506103aa60048036038101908080359060200190929190505050610f23565b005b3480156103b857600080fd5b506103c1610f89565b6040518082815260200191505060405180910390f35b3480156103e357600080fd5b506103ec610f93565b6040518082815260200191505060405180910390f35b34801561040e57600080fd5b50610417610fd0565b005b610421611091565b005b34801561042f57600080fd5b5061044e60048036038101908080359060200190929190505050611221565b6040518080602001828103825283818151815260200191508051906020019080838360005b8381101561048e578082015181840152602081019050610473565b50505050905090810190601f1680156104bb5780820380516001836020036101000a031916815260200191505b509250505060405180910390f35b3480156104d557600080fd5b506104de61130d565b6040518082815260200191505060405180910390f35b34801561050057600080fd5b5061051f60048036038101908080359060200190929190505050611337565b005b34801561052d57600080fd5b5061054c6004803603810190808035906020019092919050505061139d565b6040518080602001828103825283818151815260200191508051906020019080838360005b8381101561058c578082015181840152602081019050610571565b50505050905090810190601f1680156105b95780820380516001836020036101000a031916815260200191505b509250505060405180910390f35b610621600480360381019080803590602001908201803590602001908080601f0160208091040260200160405190810160405280939291908181526020018383808284378201915050505050509192919290505050611478565b005b34801561062f57600080fd5b5061064e600480360381019080803590602001909291905050506115dd565b604051808273ffffffffffffffffffffffffffffffffffffffff1673ffffffffffffffffffffffffffffffffffffffff16815260200191505060405180910390f35b34801561069c57600080fd5b506106bb60048036038101908080359060200190929190505050611650565b604051808681526020018581526020018481526020018381526020018281526020019550505050505060405180910390f35b3480156106f957600080fd5b5061071860048036038101908080359060200190929190505050611695565b6040518080602001828103825283818151815260200191508051906020019080838360005b8381101561075857808201518184015260208101905061073d565b50505050905090810190601f1680156107855780820380516001836020036101000a031916815260200191505b509250505060405180910390f35b34801561079f57600080fd5b506107a8611750565b6040518082815260200191505060405180910390f35b6107dc60048036038101908080359060200190929190505050611759565b005b6000600960009054906101000a900473ffffffffffffffffffffffffffffffffffffffff1673ffffffffffffffffffffffffffffffffffffffff163373ffffffffffffffffffffffffffffffffffffffff1614151561083c57600080fd5b3073ffffffffffffffffffffffffffffffffffffffff1631905090565b600960009054906101000a900473ffffffffffffffffffffffffffffffffffffffff1673ffffffffffffffffffffffffffffffffffffffff163373ffffffffffffffffffffffffffffffffffffffff161415156108b557600080fd5b8060068190555050565b600080600080600960009054906101000a900473ffffffffffffffffffffffffffffffffffffffff1673ffffffffffffffffffffffffffffffffffffffff163373ffffffffffffffffffffffffffffffffffffffff1614151561092157600080fd5b600360005414151561093257600080fd5b600a60015481548110151561094357fe5b9060005260206000209060080201925060009150600090505b82600001548110156109b757826004018281548110151561097957fe5b9060005260206000200154836004018281548110151561099557fe5b906000526020600020015411156109aa578091505b808060010191505061095c565b81935050505090565b6000806000806000600960009054906101000a900473ffffffffffffffffffffffffffffffffffffffff1673ffffffffffffffffffffffffffffffffffffffff163373ffffffffffffffffffffffffffffffffffffffff16141515610a2457600080fd5b6003600054141515610a3557600080fd5b600a600154815481101515610a4657fe5b90600052602060002090600802019450610a5e6108bf565b935084600601600085815260200190815260200160002060009054906101000a900473ffffffffffffffffffffffffffffffffffffffff169250610aab60075486600501540260646117fe565b91503073ffffffffffffffffffffffffffffffffffffffff16318211151515610ad357600080fd5b610ae660085486600501540260646117fe565b90503073ffffffffffffffffffffffffffffffffffffffff16318111151515610b0e57600080fd5b600c8560070160008681526020019081526020016000209080600181540180825580915050906001820390600052602060002001600090919290919091509080546001816001161561010002031660029004610b6b92919061183f565b505060036001541015610be05760008081905550600180600082825401925050819055506000604051908082528060200260200182016040528015610bc457816020015b6060815260200190600190039081610baf5790505b50600b9080519060200190610bda9291906118c6565b50610c4c565b600960009054906101000a900473ffffffffffffffffffffffffffffffffffffffff1673ffffffffffffffffffffffffffffffffffffffff166108fc6004549081150290604051600060405180830381858888f19350505050158015610c4a573d6000803e3d6000fd5b505b5050505050565b6000600960009054906101000a900473ffffffffffffffffffffffffffffffffffffffff1673ffffffffffffffffffffffffffffffffffffffff163373ffffffffffffffffffffffffffffffffffffffff16141515610cb157600080fd5b6001600054141515610cc257600080fd5b600a600154815481101515610cd357fe5b90600052602060002090600802016002015442101515610cfe57600260008190555060019050610d03565b600090505b90565b600960009054906101000a900473ffffffffffffffffffffffffffffffffffffffff1673ffffffffffffffffffffffffffffffffffffffff163373ffffffffffffffffffffffffffffffffffffffff16141515610d6257600080fd5b8060028190555050565b600960009054906101000a900473ffffffffffffffffffffffffffffffffffffffff1673ffffffffffffffffffffffffffffffffffffffff163373ffffffffffffffffffffffffffffffffffffffff16141515610dc857600080fd5b8060058190555050565b6000806002600054141515610de657600080fd5b600a600154815481101515610df757fe5b906000526020600020906008020190508060040183815481101515610e1857fe5b9060005260206000200154915050919050565b60006002600054141515610e3e57600080fd5b42600a600154815481101515610e5057fe5b90600052602060002090600802016003015403905090565b600b81815481101515610e7757fe5b906000526020600020016000915090508054600181600116156101000203166002900480601f016020809104026020016040519081016040528092919081815260200182805460018160011615610100020316600290048015610f1b5780601f10610ef057610100808354040283529160200191610f1b565b820191906000526020600020905b815481529060010190602001808311610efe57829003601f168201915b505050505081565b600960009054906101000a900473ffffffffffffffffffffffffffffffffffffffff1673ffffffffffffffffffffffffffffffffffffffff163373ffffffffffffffffffffffffffffffffffffffff16141515610f7f57600080fd5b8060048190555050565b6000600154905090565b60006001600054141515610fa657600080fd5b42600a600154815481101515610fb857fe5b90600052602060002090600802016002015403905090565b6000600960009054906101000a900473ffffffffffffffffffffffffffffffffffffffff1673ffffffffffffffffffffffffffffffffffffffff163373ffffffffffffffffffffffffffffffffffffffff1614151561102e57600080fd5b600260005414151561103f57600080fd5b6003600081905550600a60015481548110151561105857fe5b906000526020600020906008020190508060030154421015151561107b57600080fd5b6000816000015411151561108e57600080fd5b50565b600960009054906101000a900473ffffffffffffffffffffffffffffffffffffffff1673ffffffffffffffffffffffffffffffffffffffff163373ffffffffffffffffffffffffffffffffffffffff161415156110ed57600080fd5b600080541415156110fd57600080fd5b60036001541115151561110f57600080fd5b6000600154141561112c57600454341015151561112b57600080fd5b5b600a60c06040519081016040528060008152602001428152602001600254420181526020016003546002544201018152602001600060405190808252806020026020018201604052801561118f5781602001602082028038833980820191505090505b508152602001600081525090806001815401808255809150509060018203906000526020600020906008020160009091929091909150600082015181600001556020820151816001015560408201518160020155606082015181600301556080820151816004019080519060200190611209929190611926565b5060a082015181600501555050506001600081905550565b6060600260005414151561123457600080fd5b600082101580156112495750600b8054905082105b151561125457600080fd5b600b8281548110151561126357fe5b906000526020600020018054600181600116156101000203166002900480601f0160208091040260200160405190810160405280929190818152602001828054600181600116156101000203166002900480156113015780601f106112d657610100808354040283529160200191611301565b820191906000526020600020905b8154815290600101906020018083116112e457829003601f168201915b50505050509050919050565b6000600a60015481548110151561132057fe5b906000526020600020906008020160000154905090565b600960009054906101000a900473ffffffffffffffffffffffffffffffffffffffff1673ffffffffffffffffffffffffffffffffffffffff163373ffffffffffffffffffffffffffffffffffffffff1614151561139357600080fd5b8060038190555050565b6060600082101580156113b45750600c8054905082105b15156113bf57600080fd5b600c828154811015156113ce57fe5b906000526020600020018054600181600116156101000203166002900480601f01602080910402602001604051908101604052809291908181526020018280546001816001161561010002031660029004801561146c5780601f106114415761010080835404028352916020019161146c565b820191906000526020600020905b81548152906001019060200180831161144f57829003601f168201915b50505050509050919050565b6000600160005414151561148b57600080fd5b600554341015151561149c57600080fd5b600a6001548154811015156114ad57fe5b90600052602060002090600802019050338160060160008360000154815260200190815260200160002060006101000a81548173ffffffffffffffffffffffffffffffffffffffff021916908373ffffffffffffffffffffffffffffffffffffffff16021790555081816007016000836000015481526020019081526020016000209080519060200190611542929190611973565b50806004016000908060018154018082558091505090600182039060005260206000200160009091929091909150555080600001600081548092919060010191905055506005548160050160008282540192505081905550600b8290806001815401808255809150509060018203906000526020600020016000909192909190915090805190602001906115d7929190611973565b50505050565b60008060026000541415156115f157600080fd5b600a60015481548110151561160257fe5b9060005260206000209060080201905080600601600084815260200190815260200160002060009054906101000a900473ffffffffffffffffffffffffffffffffffffffff16915050919050565b600a8181548110151561165f57fe5b90600052602060002090600802016000915090508060000154908060010154908060020154908060030154908060050154905085565b600c818154811015156116a457fe5b906000526020600020016000915090508054600181600116156101000203166002900480601f0160208091040260200160405190810160405280929190818152602001828054600181600116156101000203166002900480156117485780601f1061171d57610100808354040283529160200191611748565b820191906000526020600020905b81548152906001019060200180831161172b57829003601f168201915b505050505081565b60008054905090565b6000600260005414151561176c57600080fd5b600a60015481548110151561177d57fe5b90600052602060002090600802019050600082101580156117a15750806000015482105b15156117ac57600080fd5b60065434101515156117bd57600080fd5b80600401828154811015156117ce57fe5b90600052602060002001600081548092919060010191905055503481600501600082825401925050819055505050565b60008060008311151561180d57fe5b828481151561181857fe5b049050828481151561182657fe5b06818402018414151561183557fe5b8091505092915050565b828054600181600116156101000203166002900490600052602060002090601f016020900481019282601f1061187857805485556118b5565b828001600101855582156118b557600052602060002091601f016020900482015b828111156118b4578254825591600101919060010190611899565b5b5090506118c291906119f3565b5090565b828054828255906000526020600020908101928215611915579160200282015b82811115611914578251829080519060200190611904929190611a18565b50916020019190600101906118e6565b5b5090506119229190611a98565b5090565b828054828255906000526020600020908101928215611962579160200282015b82811115611961578251825591602001919060010190611946565b5b50905061196f91906119f3565b5090565b828054600181600116156101000203166002900490600052602060002090601f016020900481019282601f106119b457805160ff19168380011785556119e2565b828001600101855582156119e2579182015b828111156119e15782518255916020019190600101906119c6565b5b5090506119ef91906119f3565b5090565b611a1591905b80821115611a115760008160009055506001016119f9565b5090565b90565b828054600181600116156101000203166002900490600052602060002090601f016020900481019282601f10611a5957805160ff1916838001178555611a87565b82800160010185558215611a87579182015b82811115611a86578251825591602001919060010190611a6b565b5b509050611a9491906119f3565b5090565b611ac191905b80821115611abd5760008181611ab49190611ac4565b50600101611a9e565b5090565b90565b50805460018160011615610100020316600290046000825580601f10611aea5750611b09565b601f016020900490600052602060002090810190611b0891906119f3565b5b505600a165627a7a7230582061f080800be0f853acf9fe52fbad07fb85f47a843a47253384e44a1baa386b650029",
  "source": "pragma solidity ^0.4.17;\ncontract WritingShare {\n    //variables about stages and chapters\n    uint private stage = 0; //0:have not begin   1:begin candidate  2:vote begin   3:vote finish and distribute money\n    uint private currentChapter = 0;   //index of currentChapter, begin with 0\n    uint constant chapterAmount = 3;   // chapterAmount\n\n    // variables about time\n    uint writingTime = 10;    // the time for candidates to write and broadcast\n    uint votingTime = 10;       // the time for voting\n    //varaibles about cost\n    uint beginCost = 10 ether; //the amount Drawer initially sends to the contract\n    uint writingCost = 10 ether;  //  the price for each candidate\n    uint votingCost = 10 ether;    //  the price for each voting tiket in voting stage\n    //varaiable about reward\n    uint rewardPercentOfCandidate = 40; // represent as percentages\n    uint rewardPercentOfDrawer = 40;\n    address ownerAddress; // owner is the drawer\n\n    modifier onlyOwner(){\n        require(msg.sender==ownerAddress);\n        _;\n    }\n    modifier onlyStage0(){\n        require(stage==0);\n        _;\n    }\n    modifier onlyStage1(){\n        require(stage==1);\n        _;\n    }\n    modifier onlyStage2(){\n        require(stage==2);\n        _;\n    }\n    modifier onlyStage3(){\n        require(stage==3);\n        _;\n    }\n    struct Chapter{\n        uint numCandidates;\n        uint beginChapterTime;\n        uint writingEnd;\n        uint votingEnd;\n        uint[] votes;\n        uint totalMoney;\n        mapping (uint=>address) addressCandidates;\n        mapping (uint=>string) contentCandidates;\n    }\n    //data structure to store all chapters\n    Chapter[] public chapters;\n    //arrays to store all currentCandidateContent\n    string [] public currentCandidateContent = new string[](0);\n    //arrays to store all contents of final winner\n    string [] public allWinnerContent = new string[](0);\n\n    function WritingShare() public {\n        ownerAddress = msg.sender;\n    }\n\n    function createNewChapter() payable public onlyOwner() onlyStage0(){\n        require(currentChapter<=chapterAmount);\n        //pay money\n        if (currentChapter == 0){\n            require(msg.value >= beginCost);\n        }\n        //create new chapter\n        chapters.push(Chapter({\n            numCandidates: 0,\n            votes: new uint[](0),\n            beginChapterTime: now,\n            totalMoney:0,\n            writingEnd: now + writingTime,\n            votingEnd: now + writingTime + votingTime\n        }));\n        stage = 1;\n    }\n\n    function createNewCandidate(string _content) payable public onlyStage1() {\n        //pay money\n        require(msg.value >= writingCost);\n        //add candidates\n        Chapter storage ThisChapter = chapters[currentChapter];\n\n        ThisChapter.addressCandidates[ThisChapter.numCandidates] = msg.sender;\n        ThisChapter.contentCandidates[ThisChapter.numCandidates] = _content;\n        ThisChapter.votes.push(0);\n        ThisChapter.numCandidates ++;\n        ThisChapter.totalMoney += writingCost;\n        currentCandidateContent.push(_content);\n    }\n\n    function checkVoting() public onlyOwner() onlyStage1() returns(uint){\n        if (now >= chapters[currentChapter].writingEnd) {\n          stage = 2;\n          return 1;\n        }\n        else {\n          return 0;\n        }\n    }\n\n    function voting(uint _indexVoteCandidate) payable public onlyStage2(){\n        // make sure that the index is valid\n        Chapter storage ThisChapter = chapters[currentChapter];\n        require(_indexVoteCandidate>=0 && _indexVoteCandidate<ThisChapter.numCandidates);\n        //pay money\n        require(msg.value >= votingCost);\n        ThisChapter.votes[_indexVoteCandidate] ++;  //take a vote\n        ThisChapter.totalMoney +=msg.value;\n    }\n\n    function endVoting() public onlyOwner() onlyStage2() {\n        stage = 3;\n        Chapter storage ThisChapter = chapters[currentChapter];\n        require(now >= ThisChapter.votingEnd);\n        require(ThisChapter.numCandidates > 0);\n    }\n\n    function findWinnerIndex() public view onlyOwner() onlyStage3() returns (uint){\n      Chapter storage ThisChapter = chapters[currentChapter];\n      uint indexWinner = 0;\n      for (uint i = 0; i < ThisChapter.numCandidates; i++) {\n          if(ThisChapter.votes[i] > ThisChapter.votes[indexWinner]){\n              indexWinner = i;\n          }\n      }\n      return indexWinner;\n    }\n\n    function rewardTheWinner() public onlyOwner() onlyStage3() {\n      Chapter storage ThisChapter = chapters[currentChapter];\n      uint indexWinner = findWinnerIndex();\n      address winnerAddress = ThisChapter.addressCandidates[indexWinner];\n\n      uint256 moneyForWinner = div(uint256(ThisChapter.totalMoney * rewardPercentOfCandidate),uint256(100));\n      require(moneyForWinner <= this.balance);\n      /* winnerAddress.transfer(moneyForWinner); */\n\n      uint256 moneyForDrawer = div(uint256(ThisChapter.totalMoney * rewardPercentOfDrawer),uint256(100));\n      require(moneyForDrawer <= this.balance);\n      /* ownerAddress.transfer(moneyForDrawer); */\n\n      //publish the centent\n      allWinnerContent.push(ThisChapter.contentCandidates[indexWinner]);\n\n      if(currentChapter < chapterAmount){\n          stage = 0;\n          currentChapter +=1;\n          currentCandidateContent = new string[](0);\n      }\n      else{//finish all\n          ownerAddress.transfer(beginCost);\n      }\n    }\n\n    function div(uint256 a, uint256 b) internal pure returns (uint256) {\n        assert(b > 0); // Solidity automatically throws when dividing by 0\n        uint256 c = a / b;\n        assert(a == b * c + a % b); // There is no case in which this doesn't hold\n        return c;\n    }\n\n    function getCurrentChapter() public view returns (uint) {\n        return currentChapter;\n    }\n\n    function getStage() public view returns (uint) {\n        return stage;\n    }\n\n    function getBalance() public onlyOwner view returns(uint) {\n        return this.balance;\n    }\n\n    function getWrittingLeftTime() onlyStage1() public view returns (uint) {\n        return chapters[currentChapter].writingEnd - now;\n    }\n\n    function getVotingLeftTime() onlyStage2() public view returns (uint) {\n        return chapters[currentChapter].votingEnd - now;\n    }\n\n    function getNumCandidate() public view returns(uint) {\n        return chapters[currentChapter].numCandidates;\n    }\n\n    function getCurrentCandidateContent(uint _indexCandidate) public onlyStage2() view returns(string){\n        require(_indexCandidate >= 0 && _indexCandidate < currentCandidateContent.length);\n        return currentCandidateContent[_indexCandidate];\n    }\n\n    function getCandidateAddress(uint _indexCandidate) public onlyStage2() view returns(address){\n      Chapter storage ThisChapter = chapters[currentChapter];\n      return ThisChapter.addressCandidates[_indexCandidate];\n    }\n\n    function getCandidateVotes(uint _indexCandidate) public onlyStage2() view returns(uint){\n      Chapter storage ThisChapter = chapters[currentChapter];\n      return ThisChapter.votes[_indexCandidate];\n    }\n\n    function getWinnerContent(uint _indexChapter) public view returns(string) {\n        require(_indexChapter >= 0 && _indexChapter < allWinnerContent.length);\n        return allWinnerContent[_indexChapter];\n    }\n\n    function setWritingTime(uint t) public onlyOwner(){\n       writingTime = t;\n    }\n\n    function setVotingTime(uint t) public onlyOwner(){\n       votingTime = t;\n    }\n\n    function setBeginCost(uint t) public onlyOwner(){\n       beginCost = t;\n    }\n    function setWritingCost(uint t) public onlyOwner(){\n       writingCost = t;\n    }\n    function setVotingCost(uint t) public onlyOwner(){\n       votingCost = t;\n    }\n}\n",
  "sourcePath": "/Users/Youran/Projects/truffle_demo/contracts/WritingShare.sol",
  "compiler": {
    "name": "solc",
    "version": "0.4.23+commit.124ca40d.Emscripten.clang"
  },
  "schemaVersion": "2.0.0",
  "updatedAt": "2018-05-01T08:20:02.811Z"
}